:100000000C94C3030C94EB030C94EB030C94EB03E0
:100010000C94EB030C94EB030C94EB030C94EB03A8
:100020000C94EB030C94EB030C94090A0C94780ADF
:100030000C94EB030C94EB030C94EB030C94EB0388
:100040000C94EB030C94EB030C94EB030C94EB0378
:100050000C94EB030C94EB030C94EB030C94AA0CA0
:100060000C94EB030C94EB030C94EB030C94EB0358
:100070000C94EB030C94EB030C94EB030C94EB0348
:100080000C94EB030C94EB030C94EB030C94EB0338
:100090000C94EB030C94EB030C94EB030C94EB0328
:1000A0000C94EB030C94EB030C94EB0300000000A6
:1000B000003E5B4F5B3E3E6B4F6B3E1C3E7C3E1CEE
:1000C000183C7E3C181C577D571C1C5E7F5E1C0034
:1000D000183C1800FFE7C3E7FF0018241800FFE7EB
:1000E000DBE7FF30483A060E2629792926407F05AE
:1000F0000507407F05253F5A3CE73C5A7F3E1C1CC4
:1001000008081C1C3E7F14227F22145F5F005F5F83
:1001100006097F017F006689956A6060606060946F
:10012000A2FFA29408047E040810207E2010080874
:100130002A1C08081C2A08081E101010100C1E0C7F
:100140001E0C30383E3830060E3E0E060000000011
:100150000000005F00000007000700147F147F14F8
:10016000242A7F2A1223130864623649562050003D
:1001700008070300001C2241000041221C002A1C29
:100180007F1C2A08083E0808008070300008080814
:100190000808000060600020100804023E51494534
:1001A0003E00427F400072494949462141494D3352
:1001B0001814127F1027454545393C4A49493141B9
:1001C000211109073649494936464949291E000087
:1001D00014000000403400000008142241141414DC
:1001E0001414004122140802015909063E415D59C8
:1001F0004E7C1211127C7F494949363E41414122D1
:100200007F4141413E7F494949417F090909013EFA
:10021000414151737F0808087F00417F4100204021
:10022000413F017F081422417F404040407F021C33
:10023000027F7F0408107F3E4141413E7F0909094A
:10024000063E4151215E7F09192946264949493216
:1002500003017F01033F4040403F1F2040201F3FDC
:100260004038403F63140814630304780403615961
:10027000494D43007F4141410204081020004141A3
:10028000417F04020102044040404040000307084F
:100290000020545478407F2844443838444444284B
:1002A000384444287F385454541800087E090218F2
:1002B000A4A49C787F0804047800447D400020407A
:1002C000403D007F1028440000417F40007C0478BE
:1002D00004787C080404783844444438FC18242406
:1002E0001818242418FC7C08040408485454542486
:1002F00004043F44243C4040207C1C2040201C3C03
:100300004030403C44281028444C9090907C4464F9
:10031000544C44000836410000007700000041368C
:10032000080002010204023C2623263C1EA1A16112
:10033000123A4040207A3854545559215555794144
:100340002154547841215554784020545579400C1B
:100350001E527212395555555939545454593955FC
:100360005454580000457C410002457D420001453F
:100370007C40F0292429F0F0282528F07C545545AC
:10038000002054547C547C0A097F4932494949323F
:100390003248484832324A4848303A4141217A3A54
:1003A00042402078009DA0A07D39444444393D401E
:1003B00040403D3C24FF2424487E4943662B2FFCCB
:1003C0002F2BFF0929F620C0887E09032054547979
:1003D000410000447D413048484A32384040227A4A
:1003E000007A0A0A727D0D19317D2629292F2826C7
:1003F0002929292630484D402038080808080808CF
:100400000808382F10C8ACBA2F102834FA00007B27
:10041000000008142A142222142A1408950022002D
:1004200095AA005500AAAA55AA55AA000000FF00E7
:10043000101010FF00141414FF001010FF00FF1024
:1004400010F010F0141414FC001414F700FF000056
:10045000FF00FF1414F404FC141417101F10101FD5
:10046000101F1414141F00101010F0000000001FC3
:10047000101010101F10101010F010000000FF10CE
:100480001010101010101010FF10000000FF1400CA
:1004900000FF00FF00001F10170000FC04F41414FC
:1004A0001710171414F404F40000FF00F7141414C8
:1004B00014141414F700F7141414171410101F1048
:1004C0001F141414F4141010F010F000001F101F6B
:1004D0000000001F14000000FC140000F010F010D9
:1004E00010FF10FF141414FF141010101F00000050
:1004F00000F010FFFFFFFFFFF0F0F0F0F0FFFFFF54
:100500000000000000FFFF0F0F0F0F0F38444438AA
:10051000447C2A2A3E147E02020606027E027E02E5
:1005200063554941633844443C04407E201E200604
:10053000027E020299A5E7A5991C2A492A1C4C7241
:1005400001724C304A4D4D303048784830BC625AC8
:10055000463D3E494949007E0101017E2A2A2A2A58
:100560002A44445F444440514A444040444A514034
:100570000000FF0103E080FF000008086B6B0836F5
:1005800012362436060F090F060000181800000066
:100590001010003040FF0101001F01011E00191D55
:1005A0001712003C3C3C3C0000000000F0F89C8E20
:1005B0008783878E9CF8F00000FEFF03030303038C
:1005C000070EFCF80000FEFF0303030303070EFC05
:1005D000F80000FFFF00000000000000FFFF000027
:1005E000FEFF8383838383C7EE7C380000F8FC0E14
:1005F00007030303070EFCF800003F7FE0C0808084
:10060000C0E07F3FFFFF01010101010101FFFF0089
:1006100000FFFF0C0C0C0C1C3E77E3C100007FFFB9
:10062000C0C0C0C0C0E0703F1F00001F3F70E0C0EE
:10063000C0C0E0703F1F00007FFFC1C1C1C1C1E366
:10064000773E1C00001F3F70E0C0C0C0E0703F1F3D
:10065000000000000001FFFF01000000D5F08D1434
:10066000A1C881CFD9F1AF2000503A00563A002AF4
:10067000002A00473A002A002A00523A0010100FC0
:1006800007030100000000000000000103070FF055
:10069000E0C080000000000000000080C0E0F0101A
:1006A00010F0F8FCFEFFFFFFFFFFFFFFFFFEFCF86E
:1006B000F00F1F3F7FFFFFFFFFFFFFFFFF7F3F1F89
:1006C0000F20076040000000000000000000000054
:1006D000000000000000000000000000000000001A
:1006E00000406020071F3F7F7F7F7F7F7F7F7F7F6E
:1006F0007F7F7F7F7F7F7F7F7F7F7F7F7F7F7F7F0A
:100700007F7F7F3F1F53696D756C6174696F6E00E9
:100710005072657669657700080B000202020000DE
:100720000904000001020200000524001001052454
:1007300001010104240206052406000107058103C6
:1007400010004009040100020A000000070502022F
:100750004000000705830240000004030904120161
:100760000002EF0201404123368000010102030133
:1007700041726475696E6F204C4C43004172647520
:10078000626F7900270D11241FBECFEFDAE0DEBFC4
:10079000CDBF11E0A0E0B1E0E6EFF8E202C00590C5
:1007A0000D92AE33B107D9F725E0AEE3B1E001C059
:1007B0001D92A93EB207E1F713E0C3ECD3E004C0F9
:1007C0002197FE010E947314C23CD107C9F70E9411
:1007D000670D0C9479140C940000EEE6F1E0A0E0B3
:1007E000B8E000800EBC8111012C1197A0FDFDCF57
:1007F0000192B9F70DB40895FC0180916D01882331
:1008000011F13FB7F89482E08093E9002091F20063
:10081000822F90E01816190614F481E090E08823E6
:1008200039F0289844E640936C014091F1004083F0
:10083000222339F02091F200211103C02BE62093EE
:10084000E8003FBF08958FEF9FEF08952FB7F8940A
:1008500083E08093E9009091E800892F807295FFF2
:1008600004C09091F20080E4891B2FBF089580910D
:10087000640181110DC082E08093600184E0809367
:100880006101109263011092620181E08093640122
:1008900080E691E00895CF93DF931F92CDB7DEB746
:1008A0006983DC01ED91FC910280F381E02D41E050
:1008B00050E0BE016F5F7F4F09950F90DF91CF91A0
:1008C000089583E08093E9008091F200882319F075
:1008D0008AE38093E80008950E94260490E008953A
:1008E000CF93DF931F92CDB7DEB7FC01848595854A
:1008F00097FD08C02FEF3FEF358724870F90DF91DA
:10090000CF910895CE0101960E94FC03019719F43E
:10091000898190E0F3CF8FEF9FEFF0CF0F931F937C
:10092000CF93DF931F92CDB7DEB78C01FC01848596
:10093000958597FF0BC0CE0101960E94FC0301979D
:1009400071F4898190E0F80195878487F8018485A6
:1009500095850F90DF91CF911F910F9108958FEFA3
:100960009FEFF1CFFC018485958597FD0BC09FB764
:10097000F89482E08093E9008091F2009FBF90E0BC
:10098000019608959FB7F89482E08093E9008091E2
:10099000F2009FBF90E0089540915A0150915B0191
:1009A000209158013091590142175307B4F49091A6
:1009B000E8009570E1F39091E80092FD19C08093F2
:1009C000F10080915A0190915B0101968F739927F4
:1009D000892B19F48EEF8093E80080915A01909151
:1009E0005B01019690935B0180935A0181E0089529
:1009F00080E00895DF92EF92FF920F931F93CF93C1
:100A0000DF93D82E8A01EB017B01E40EF51ECE1593
:100A1000DF0559F0D7FE12C0FE0184910E94CC047C
:100A200021968111F4CF0FEF1FEFC801DF91CF9115
:100A30001F910F91FF90EF90DF9008958881EECF86
:100A40000F931F93CF93DF931F92CDB7DEB782E052
:100A5000898342E450E068E177E080E80E94FA048C
:100A60000E943704DC0112960D911C9101151105AD
:100A700089F0D801ED91FC910280F381E02DBE0157
:100A80006F5F7F4FC801099597FD04C0F80100858D
:100A90001185ECCF89810F90DF91CF911F910F913C
:100AA0000895615030F02091F100FC0120830196FF
:100AB000F8CF289884E680936C010895AF92BF9296
:100AC000CF92DF92EF92FF920F931F93CF93DF931A
:100AD0006C017B018B01040F151FEB015E01AE1849
:100AE000BF08C017D10759F06991D601ED91FC916B
:100AF0000190F081E02DC6010995892B79F7C50198
:100B0000DF91CF911F910F91FF90EF90DF90CF90E9
:100B1000BF90AF900895FC010E942206319728F003
:100B200068517C4F8F4F9F4FF9CFAB01FC010E9462
:100B30002206641775078E079F07C8F308958F92E2
:100B40009F92AF92BF92CF92DF92EF92FF920F935C
:100B50001F93CF93DF936C017B018A0180910C017D
:100B6000882309F45AC080916D01882309F455C087
:100B700080915F0180FF05C08091E00082608093DA
:100B8000E000E801B12C8AEFA82E93E0892E2AE339
:100B9000922E209711F4BB20C9F10E9426048111E6
:100BA00008C0AA94AA20C9F181E090E00E948B05B8
:100BB000F0CF8C171D0611F00CF08C2F9FB7F89416
:100BC0008092E9002091E80025FD02C09FBFE1CF9F
:100BD000282F30E0C21BD30BF701815020F0419148
:100BE0004093F100FACFE20EF31EBB2021F0909269
:100BF000E800B12CEBCF8091E80085FDE7CF909223
:100C0000E800BB24B394209709F3F3CF5D9884E602
:100C100080935E01101611063CF081E090E0F60131
:100C20009383828310E000E0C801DF91CF911F9190
:100C30000F91FF90EF90DF90CF90BF90AF909F907B
:100C40008F900895A6E4B1E02FB7F8947D918D912F
:100C50009C9166B52FBFA89B05C06F3F18F47F5FBE
:100C60008F4F9F4F22E0660F771F881F991F2A958D
:100C7000D1F708954F925F926F927F928F929F92D9
:100C8000AF92BF92CF92DF92EF92FF920F931F939A
:100C9000CF93DF93DC014901FC2DC02FD0E06E0122
:100CA000C80ED91EC114D10409F462C08038910560
:100CB0000CF05EC0CB018E0D911D181619060CF0BC
:100CC00057C0603471050CF053C04115510509F44B
:100CD0004FC0262F2770F22ECB0177FD079633E009
:100CE000959587953A95E1F7382F77FF04C0FF2057
:100CF00011F03FEF380F902F20E8C216D10414F006
:100D000090E89A1BC32E032E000CDD08EC2DE09515
:100D10003F3F0CF0E0E021E08E2D877009F420E0E9
:100D2000E694E694E694E20ECE0CD11C89E0C81657
:100D3000D1041CF028E0E22EE31AEE1A3E0F20E860
:100D40003203B0011124A60FB71F0E9F800111249A
:100D5000400F511FAF2C0F2C000CBB08F33009F4CF
:100D600014C1B8F4F13009F4CAC0F23009F478C003
:100D7000DF91CF911F910F91FF90EF90DF90CF9077
:100D8000BF90AF909F908F907F906F905F904F90AB
:100D90000895FA3FA9F1232F2E0DFB3F49F7321793
:100DA00039F3BD0162597E4F10E000E0091708F0E9
:100DB000A0C0FA01E00FF11FE491F0E04F010A2C0E
:100DC00002C0880C991C0A94E2F737FD06C0FB01AB
:100DD0008081E82CE0948E218083FF2061F0373001
:100DE00054F46B01F0E8CF0ED11CE92CE094F6012D
:100DF00080818E2180830F5F1F4F6F5F7F4FD6CF23
:100E0000232F2E0D321709F4B3CFBD0162597E4F47
:100E100010E000E0091708F066C0FA01E00FF11FCA
:100E2000E491F0E04F010A2C02C0880C991C0A944E
:100E3000E2F737FD04C0FB01808188298083FF2011
:100E400051F0373044F46B01F0E8CF0ED11CF601BD
:100E50008081892980830F5F1F4F6F5F7F4FDACFBB
:100E60006FEF70E00F2C02C0660F771F0A94E2F755
:100E700060957095772E232F2E0D321709F478CFB9
:100E80008D0102591E4FD12CC12CC91630F5FA0123
:100E9000EC0DFD1DE491F0E02F010A2C02C0440C82
:100EA000551C0A94E2F737FD05C0F80180818623BE
:100EB00084298083FF2059F037304CF44801F0E852
:100EC0008F0E911CF4018081872185298083FFEF9B
:100ED000CF1ADF0A0F5F1F4FD8CF3F5F4C0F5D1F48
:100EE000A058BF4FCACF3F5F4C0F5D1FA058BF4FE8
:100EF00089CF3F5F4C0F5D1FA058BF4F50CF080DEB
:100F0000191D232F2E0D321709F432CFBD0162595E
:100F10007E4FD12CC12CC91680F5F801EC0DFD1DBA
:100F20008490912C0A2C02C0880C991C0A94E2F738
:100F300080949094FA01EC0DFD1D6490712C0A2CA4
:100F400002C0660C771C0A94E2F737FD05C0FB016E
:100F50008081882186298083FF2049F037303CF446
:100F6000FB01E058FF4F8081892187298083FFEFB3
:100F7000CF1ADF0A6F5F7F4FCECF3F5F4C0F5D1FF1
:100F80000C0F1D1FA058BF4FBECFC92ED12CFA0188
:100F9000E00FF11FA259BE4F60E870E06C197D09A7
:100FA000CC19DD098E01000F111F41E050E06A01EC
:100FB0000F2C01C0CC0C0A94EAF7592F2E2D792E54
:100FC000CF93DF93ED01EF96EF9622968590A59053
:100FD000FF2059F08C9C4001AC9C500137302CF420
:100FE000E880B094EB20E928E99233233AF0EC90C2
:100FF000A094EA20E828ED920C94FF0711965A95E8
:1010000029F72A9551F0572D33951124E00FF11D42
:10101000A60FB11DC60FD11DD9CFDF91CF911124DD
:10102000A7CE90E00C948B058FB18095807F669B56
:1010300088601C9B846008956F927F929F92AF920C
:10104000BF92CF92DF92EF92FF920F931F93CF93B5
:10105000DF9300D01F92CDB7DEB76D3081F0609086
:101060004C0170904D016A30E9F410924B011092DE
:101070004A01C301089690934D0180934C0181E091
:1010800090E00F900F900F90DF91CF911F910F91F3
:10109000FF90EF90DF90CF90BF90AF909F907F90A8
:1010A0006F900895B090000140914A0150914B011A
:1010B00095E0699FF0011124E455FF4F9A01912CAE
:1010C00060E1F62EA5E080E09A1629F0BF016F5F7F
:1010D0007F4F8491FB01B30198E0E92EB82FB170E6
:1010E000AB2E80FD2FC0BB20D1F020383105B8F4E5
:1010F00060347105A0F48B0191E001FD94E000FDE6
:10110000990F02FD9295087FF09ED0011124A20F45
:10111000A259BE4F0C90092AA0FE09260C92869572
:10112000EA946F5F7F4FE110D9CF93942F5F3F4FC9
:10113000A6E09A12C7CF4A5F5F4F50934B0140938E
:101140004A019DCFAB2CD1CF0F931F93CF93DF9349
:101150008C01D0E0C0E0F801EC0FFD1F6491662324
:1011600041F08EEB95E00E941C08892B11F021962E
:10117000F2CFCE01DF91CF911F910F910895909101
:101180004E01982329F490914F01982381E009F4AE
:1011900080E00895CF93C82F0E941408982F9C23B5
:1011A00081E09C1380E0CF91089580E00C94ED03E2
:1011B000089590E080E00895FC0101900020E9F797
:1011C0003197AF01481B590BBC018EEB95E00C9495
:1011D0005E058F929F92AF92BF920F931F93CF9312
:1011E000DF93CDB7DEB7A1970FB6F894DEBF0FBE81
:1011F000CDBF19A2423008F44AE08E010F5D1F4FA7
:10120000842E912CB12CA12CA50194010E940E12C8
:10121000E62FB901CA01EA30F4F4E05DD801EE939B
:101220008D01232B242B252B79F790E080E010975C
:1012300019F0CD010E94DC08A1960FB6F894DEBF2C
:101240000FBECDBFDF91CF911F910F91BF90AF9097
:101250009F908F900895E95CE1CF4F925F926F92DB
:101260007F928F929F92AF92BF92CF92DF92EF9236
:10127000FF920F931F93CF936B017C01742EAC01EF
:101280009B010E946E14882399F082E391E0CF9134
:101290001F910F91FF90EF90DF90CF90BF90AF9094
:1012A0009F908F907F906F905F904F900C94DC0890
:1012B00046015701E894B7F82FEF3FEF4FE75FE79C
:1012C000C501B4010E946E1481110DC02FEF3FEFD4
:1012D0004FE75FE7C501B4010E949D1218161CF488
:1012E00086E391E0D4CF2FEF3FEF4FE75FE4C701F4
:1012F000B6010E94FC1318161CF48AE391E0C7CFD4
:101300002FEF3FEF4FE75FECC701B6010E949D1240
:1013100087FDF3CF20E030E0A901C701B6010E94AC
:101320009D1210E000E087FF0AC06DE28EEB95E0B1
:101330000E941C088C01F7FAF094F7F8F094C0E0D2
:1013400060E070E080E09FE37C1641F020E030E058
:1013500040E251E40E94A212CF5FF6CFA7019601AE
:101360000E9431122B013C010E941B134B015C01B6
:101370004AE00E94E9087C01E00EF11ECC23C1F195
:10138000C501B4010E944A139B01AC01C301B20123
:101390000E9430124B015C016EE28EEB95E00E94E0
:1013A0001C08E80EF91EC15018F120E030E040E2C0
:1013B00051E4C501B4010E9401142B013C010E94BB
:1013C0001B134B01B12CA12C4AE0C501B4010E94B2
:1013D000E908E80EF91EC501B4010E944A139B01F9
:1013E000AC01C301B2010E9430124B015C01DBCFA2
:1013F000C701CF911F910F91FF90EF90DF90CF9099
:10140000BF90AF909F908F907F906F905F904F9024
:1014100008951F920F920FB60F9211248F939F93EE
:101420008091E1009091E100937F9093E10083FF30
:101430000FC01092E90091E09093EB001092EC0045
:1014400092E39093ED0010926D0198E09093F0007C
:1014500082FF22C093E09093E9009091F2009923DB
:1014600019F09AE39093E80090915E01992341F07E
:1014700090915E01915090935E01911101C05D9A2F
:1014800090916C01992341F090916C01915090934F
:101490006C01911101C0289A84FF18C08091E2006C
:1014A0008E7E81608093E2008091E1008F7E809348
:1014B000E10080915F018E7E806180935F019F914A
:1014C0008F910F900FBE0F901F90189580FFF7CF50
:1014D0008091E2008E7E80618093E2008091E10045
:1014E0008E7E8093E10080915F018E7E8160E5CFEA
:1014F0001F920F920FB60F921124CF92DF92EF92AC
:10150000FF920F931F932F933F934F935F936F938C
:101510007F938F939F93AF93BF93EF93FF93CF935B
:10152000DF93CDB7DEB76C97DEBFCDBF1092E90079
:101530008091E80083FF25C068E0CE0145960E94B7
:10154000510582EF8093E8008D8987FF39C0909123
:10155000E80090FFFCCF982F907609F034C19E8967
:101560004F89588D2F89F88C911131C0803861F5E1
:1015700080915D018093F1001092F1008EEF8093D5
:10158000E8006C960FB6F894DEBF0FBECDBFDF91BA
:10159000CF91FF91EF91BF91AF919F918F917F91EB
:1015A0006F915F914F913F912F911F910F91FF90FC
:1015B000EF90DF90CF900F900FBE0F901F90189577
:1015C0009EEF9093E800C7CF1092F100D5CF9130F5
:1015D00059F48111D3CF4130510581F680915D01DD
:1015E0008D7F80935D01CACF933049F48111C6CFBE
:1015F0004130510519F680915D018260F2CF95303E
:1016000041F48091E80080FFFCCF20682093E30044
:10161000B5CF963009F0A9C00B8D1C8D22E0109239
:10162000E90010925B0110925A01F2122EC0109242
:101630005901109258010E9420051F8299E0998358
:10164000FA8291E09E8390EA98879AEF9987209199
:101650005A0130915B01275F3F4F3C832B838D8381
:101660001092E90010925B0110925A0110935901F7
:101670000093580149E050E0BE016F5F7F4F80E06A
:101680000E94FA040E94200579CF1093590100931B
:1016900058010E943704DC0112960D911C9101152E
:1016A000110509F451C1D801ED91FC910480F58137
:1016B000E02DBE016B5E7F4FC8010995009709F0D0
:1016C0003EC1F80100851185EACFF3E0FF120EC09C
:1016D0008F89882309F440C0823061F440E867E0D4
:1016E0008CE797E00E94F40C811148CF81E280934F
:1016F000EB0047CF813029F440E86BE080E797E0CA
:10170000F1CF833099F70E943704DC011296ED90F7
:10171000FC908E010F5F1F4F6801E114F10479F016
:10172000D701ED91FC910680F781E02DB801C7014A
:101730000995080F111DF701E084F184EECFD8015F
:101740001C92F60101900020E9F73197BF016C1956
:101750007D0940E0C601C6CF6AE577E0FB01449110
:1017600050E080E80E94FA0409CF973009F4BECF18
:10177000983021F481E08093F10000CF993009F096
:10178000FDCE837009F0B2CFEEE0F1E081E031E010
:1017900096E32191222371F08093E9003093EB00CE
:1017A000DF0111972C912093EC009093ED008F5F57
:1017B000873079F78EE78093EA001092EA008F89EC
:1017C00080936D01DBCE8B8D9C8D1092E900109281
:1017D0005B0110925A019093590180935801898DB1
:1017E000811192C08E899D89913A49F4813209F024
:1017F0007DCF47E050E065E071E080E0B3CF91320B
:1018000009F074CF833269F48F89988DB0E0A0E03D
:101810008093010190930201A0930301B09304010E
:10182000ADCE803269F48091E80082FFFCCF67E0A2
:1018300085E091E00E9451058BEF8093E8009ECEF9
:10184000823209F09BCE8F8980930C01EEEFFFE787
:10185000859194918B3F9C4D51F1E0E0F8E08091AF
:10186000050190910601A0910701B0910801803B0C
:101870009440A105B105F1F480910C0180FD1AC0DE
:10188000EE3F8AE0F80789F587E797E79183808341
:101890008091600080935C0188E19BE00FB6F89432
:1018A000A895809360000FBE9093600067CEEEEF26
:1018B000FAE0D5CF808191818737974709F05ECED6
:1018C000A8958091600088618093600080915C01A0
:1018D00080936000EE3F2AE0F20789F08091FE0AD3
:1018E0009091FF0A9183808349CE808191818737CF
:1018F000980751F29093FF0A8093FE0AC5CF109289
:10190000FF0A1092FE0A3ACE0E943704DC011296BA
:101910000D911C910115110509F4E8CED801ED9146
:10192000FC910190F081E02DBE016B5E7F4FC801FC
:101930000995811123CEF80100851185EBCF18168A
:1019400019060CF41BCED2CEF1E0FF12BECE6EE52E
:1019500077E004CF0F920FB68F939F93EF93FF938F
:10196000809145018D5F8D3708F08D57809345013B
:10197000E4E5F1E080818E4F808391819F4F9183D8
:1019800082818F4F828383818F4F8383E6E4F1E0EE
:1019900080818F5F808381818F4F818382818F4F90
:1019A000828383818F4F83838FB18F6066991C9B65
:1019B00088278F3681F480914401981B963068F017
:1019C000E0E0F8E087E78083818388E1809360002E
:1019D000F0936000FFCF90934401FF91EF919F91AE
:1019E0008F910FBE0F901895EF92FF920F931F9358
:1019F000CF93DF93F82E192FE62E042F81E0860F68
:101A0000880F0E94CC0483E00E94CC04CF2DD12FFC
:101A1000EC0EFD2EF11CCE15DF05B9F007FF13C04B
:101A2000FE0184910E94CC04182F80E00E94CC0417
:101A3000812321968111EFCFDF91CF911F910F91DB
:101A4000FF90EF9008958881EDCF81E0F5CFEEE62D
:101A5000F5E01382128288EE93E0A0E0B0E0848388
:101A60009583A683B78388E191E0918380838FEF8C
:101A70009FEF95878487EEEBF5E0138212828AE26E
:101A800091E09183808388E3808786E1858780E089
:101A900090E0A0E0BFE3828B938BA48BB58B20E119
:101AA000268B278B4DEC5CEC6CEC7DE3408F518FEB
:101AB000628F738F4AE959E969E57FE340A351A337
:101AC00062A373A386A397A3A0A7B1A70895789450
:101AD00083E084BD83E085BD81E080936E00E1E812
:101AE000F0E083E08083E0E881E08083E1E983E067
:101AF0008083E0E981E08083E1EC87E08083E3ECB0
:101B000081E08083E0EC82E08083E2EC81E080830E
:101B1000EAE787E080838068808310926D011092ED
:101B20005D0110925F018091D70081608093D700A2
:101B300080EA8093D80089B5806189BD89B58260CB
:101B400089BD09B400FEFDCF81E090E00E948B05C5
:101B50008091D8008F7C80618093D8008091E000D4
:101B6000807F8093E0008091E1008E7E8093E10091
:101B70008DE08093E200559A209A81EC80937C005E
:101B800081EF85B987EE84B982E38BB982EF8AB998
:101B9000769A6E9880EF81BB10BA80E58CBD81E0AB
:101BA0008DBD85E00E9411085F9A85E00E941108B2
:101BB0005C98ECE5F6E085918EBD00000DB407FE63
:101BC000FDCFE936C1F75C9A81E88093640081E03B
:101BD000809365000E94D50880E80E94CA08882387
:101BE000A9F05C9885EA8EBD00000DB407FEFDCF1C
:101BF0005C9A2E982F982D98809164008062809333
:101C0000640081E083BF889513BEFCCF84E00E940E
:101C1000CA088823B9F12D9884E80E94CA0888234D
:101C2000A1F02D9A88EC0E9411082F986FEF82E0A6
:101C300090E00E94FC1184EF91E00E948B052F9AA6
:101C400084E80E94CA088111FBCF84E10E94CA087F
:101C50008823A1F02D9A88EC0E9411082E9860E04C
:101C600082E090E00E94FC1184EF91E00E948B05DD
:101C70002E9A84E10E94CA088111FBCF88EC0E9451
:101C80001108C4CF2D9A82E090E00E94F4118823BD
:101C900009F44BC03E9A3F9A81E090E00E94F41113
:101CA000282F2470922E81FF0BC021112E9801EF56
:101CB0001FEF80E40E94CA088823D1F12E9A2F9A40
:101CC00082E30E9411080E9414088111F9CF6091EB
:101CD000CB0570E090E080E00E944A136093C2055B
:101CE0007093C3058093C4059093C5053EE6232EEB
:101CF00031E0332E48E0A42EB12CC1E080E1482E23
:101D0000512C96E5892E912C20E0622E20E0722E37
:101D100010915201112309F4A9C0109252016114CB
:101D20007104B1F30E940000E8CF3E983F98B4CF11
:101D3000992029F00430110511F42E9A2F9881E092
:101D40000E94ED03802F8770882EC80153E095957F
:101D500087955A95E1F7BC017695762F662777959A
:101D6000679550E040E08E3FCFEF9C0789F1DB01A3
:101D7000A259BE4F30E020E0FA01E455FA4F7F014E
:101D8000EB01C251DE4F6E01F701E20FF31FE49148
:101D9000F0E0082C02C0EE0FFF1F0A94E2F78F3F1D
:101DA000980739F05496BC905497BE2A5496BC922A
:101DB0005497882039F05601A20EB31EE501EC8934
:101DC000EF2BEC8B2F5F3F4F119628353105E1F655
:101DD0000196485A5F4F60587F4F403B510509F0CC
:101DE000C2CF0E94D5088FE00E9411080F5F1F4FDD
:101DF0000931110509F05DCF992011F02F9A2D9826
:101E000080E991E00E948B052D9A81E090E00E948C
:101E1000F41180FF55CF8AE090E00E94F4119FEF0B
:101E2000980F9E3F08F04CCF22E330E030934B01F7
:101E300020934A0128E330E030934D0120934C0178
:101E40000BE010E0682F8EEB95E00E941C08C801A3
:101E50000E94F4110F5F1F4F0131110599F70E9485
:101E6000D50888EE93E00E948B052ACF809154011B
:101E700090915301D82FD91BD03138F4DF3009F4B9
:101E80004ECFC3BF889513BE4ACFC09352018093F3
:101E90005301E0E5F1E08081918101968083918397
:101EA00080914F0180934E010E94140880934F014E
:101EB000F10111111FEF8FEF1193119311931193F2
:101EC0008150D0F710924D0110924C0110924B01AD
:101ED00010924A018091E805882309F4D2C081302C
:101EE00009F4C7C111E02DEC3CEC4CEC5DE36091D2
:101EF000D6057091D7058091D8059091D9050E949B
:101F00009D12811110E01093E20511E02AE939E9F0
:101F100049E55FE36091DE057091DF058091E005A2
:101F20009091E1050E949D12811110E01093E3054C
:101F3000E3EEF6E00491E4EEF6E0E490CC24C39402
:101F400021EC36E045EE56E069E370E080E390E096
:101F50000E943A06EFE9F6E00491E0EAF6E0E49048
:101F60006091C2057091C3058091C4059091C5052B
:101F70000E941413E091C6052DE736E041EA56E0D1
:101F80008E2F90E00E943A06C093000110924B0100
:101F900010924A01B0924D01A0924C018AE796E05E
:101FA0000E94A4086091DE057091DF058091E00534
:101FB0009091E10542E00E942D098091E30588237C
:101FC00009F408C2C093000188E796E00E94A408C3
:101FD000C093000110924B0110924A0150924D01A2
:101FE00040924C0183E796E00E94A4086091D605D8
:101FF0007091D7058091D8059091D90542E00E9453
:102000002D098091E205882309F4E9C1C0930001FC
:1020100081E796E00E94A408C093000190924B01D2
:1020200080924A0110924D0110924C018CE696E08C
:102030000E94A4086091C7057091C8058091C905E8
:102040009091CA0542E00E942D09C0930001909230
:102050004B0180924A01B0924D01A0924C0189E659
:1020600096E00E94A4086091C2057091C30580911A
:10207000C4059091C50542E00E942D090E94D50833
:102080004ECE80E197E00E94A40884E00E94BF0841
:10209000882391F0C093E8058091C2059091C30513
:1020A000A091C405B091C5058093CC059093CD0552
:1020B000A093CE05B093CF0588E00E94CA0888237C
:1020C00071F120E030E0A9016091C2057091C30573
:1020D0008091C4059091C5050E94FC131816FCF46C
:1020E00080E80E94CA088823D1F02091D005309161
:1020F000D1054091D2055091D3056091C2057091F0
:10210000C3058091C4059091C5050E94301260936B
:10211000C2057093C3058093C4059093C50588E0FC
:102120000E94CA08882379F120E030E048E152E4B7
:102130006091C2057091C3058091C4059091C50559
:102140000E949D1287FF1FC080E10E94CA08882359
:10215000D1F02091D0053091D1054091D205509118
:10216000D3056091C2057091C3058091C40590911B
:10217000C5050E9431126093C2057093C305809318
:10218000C4059093C50580E80E94BF088823D1F05C
:102190000E94140883FD16C02AE037ED43E25CE399
:1021A0006091D6057091D7058091D8059091D90599
:1021B0000E9431126093D6057093D7058093D8059D
:1021C0009093D90580E10E94BF088823D1F00E9436
:1021D000140883FD16C02AE037ED43E25CE360910A
:1021E000D6057091D7058091D8059091D9050E94A8
:1021F00030126093D6057093D7058093D8059093DD
:10220000D90580E40E94BF088823B1F02AE037EDA9
:1022100043E25CE36091DE057091DF058091E005AB
:102220009091E1050E9431126093DE057093DF0505
:102230008093E0059093E10580E20E94BF08882327
:1022400009F450CE2AE037ED43E25CE36091DE050D
:102250007091DF058091E0059091E1050E943012B8
:102260006093DE057093DF058093E0059093E105B0
:1022700039CE85E097E00E94A40884E00E94BF0860
:102280008823D1F01092E8058091CC059091CD057E
:10229000A091CE05B091CF058093C2059093C30560
:1022A000A093C405B093C5051092C7051092C80548
:1022B0001092C9051092CA052091D6053091D70514
:1022C0004091D8055091D9056091C7057091C80516
:1022D0008091C9059091CA050E9431126B017C0161
:1022E000C092C705D092C805E092C905F092CA0510
:1022F0002091C2053091C3054091C4055091C50598
:102300000E9431126093C2057093C3058093C40587
:102310009093C5050091D5052091C605422F50E048
:102320002091D405240F352F311D213331050CF4B4
:10233000D9CD403551050CF0D5CD0E94141310E0D5
:10234000A801460F571F4A3351050CF4CBCD60341A
:1023500071050CF0C7CD2091E4053091E505409161
:10236000E6055091E705C701B6010E94FC13181657
:10237000B4F4A701960150586091DE057091DF0515
:102380008091E0059091E1050E9401146093C705DA
:102390007093C8058093C9059093CA05A3CD69E3DE
:1023A00070E0601B710B072E000C880B990B0E94CC
:1023B0004C136093C2057093C3058093C40590933A
:1023C000C5051092C7051092C8051092C905109254
:1023D000CA0588CD1092000186E796E0F7CD1092ED
:1023E00000018FE696E016CEF999FECF92BD81BD31
:1023F000F89A992780B50895262FF999FECF92BDB6
:1024000081BDF89A019700B4021639F01FBA20BDB9
:102410000FB6F894FA9AF99A0FBE0895A1E21A2E0F
:10242000AA1BBB1BFD010DC0AA1FBB1FEE1FFF1F78
:10243000A217B307E407F50720F0A21BB30BE40BC8
:10244000F50B661F771F881F991F1A9469F760950F
:102450007095809590959B01AC01BD01CF010895C9
:102460005058BB27AA270E9448120C94C2130E94FE
:10247000B41338F00E94BB1320F039F49F3F19F4D5
:1024800026F40C94B1130EF4E095E7FB0C94AB1317
:10249000E92F0E94D31358F3BA1762077307840712
:1024A000950720F079F4A6F50C94F5130EF4E09559
:1024B0000B2EBA2FA02D0B01B90190010C01CA01FE
:1024C000A0011124FF27591B99F0593F50F4503EA9
:1024D00068F11A16F040A22F232F342F4427585F9B
:1024E000F3CF469537952795A795F0405395C9F7B3
:1024F0007EF41F16BA0B620B730B840BBAF091506B
:10250000A1F0FF0FBB1F661F771F881FC2F70EC009
:10251000BA0F621F731F841F48F4879577956795DC
:10252000B795F7959E3F08F0B0CF9395880F08F0C8
:102530009927EE0F9795879508950E94871308F4C1
:1025400081E008950E94B6120C94C2130E94BB133E
:1025500058F00E94B41340F029F45F3F29F00C9426
:10256000AB1351110C94F6130C94B1130E94D313B6
:1025700068F39923B1F3552391F3951B550BBB27B2
:10258000AA2762177307840738F09F5F5F4F220FF7
:10259000331F441FAA1FA9F335D00E2E3AF0E0E8EE
:1025A00032D091505040E695001CCAF72BD0FE2F38
:1025B00029D0660F771F881FBB1F261737074807CC
:1025C000AB07B0E809F0BB0B802DBF01FF27935884
:1025D0005F4F3AF09E3F510578F00C94AB130C948A
:1025E000F6135F3FE4F3983ED4F3869577956795AD
:1025F000B795F7959F5FC9F7880F911D96958795B9
:1026000097F90895E1E0660F771F881FBB1F6217D7
:1026100073078407BA0720F0621B730B840BBA0B95
:10262000EE1F88F7E09508950E941B136894B1117E
:102630000C94F61308950E94DB1388F09F5798F0CE
:10264000B92F9927B751B0F0E1F0660F771F881FB7
:10265000991F1AF0BA95C9F714C0B13091F00E94D1
:10266000F513B1E008950C94F513672F782F8827A0
:10267000B85F39F0B93FCCF3869577956795B395F8
:10268000D9F73EF490958095709561957F4F8F4F67
:102690009F4F0895E89409C097FB3EF4909580956C
:1026A000709561957F4F8F4F9F4F9923A9F0F92F18
:1026B00096E9BB279395F695879577956795B79596
:1026C000F111F8CFFAF4BB0F11F460FF1BC06F5F7C
:1026D0007F4F8F4F9F4F16C0882311F096E911C08E
:1026E000772321F09EE8872F762F05C0662371F0AF
:1026F00096E8862F70E060E02AF09A95660F771FC3
:10270000881FDAF7880F9695879597F90895990F9E
:102710000008550FAA0BE0E8FEEF16161706E807AB
:10272000F907C0F012161306E407F50798F0621BCC
:10273000730B840B950B39F40A2661F0232B242BA1
:10274000252B21F408950A2609F4A140A6958FEFC0
:10275000811D811D089597F99F6780E870E060E012
:1027600008959FEF80EC089500240A94161617062A
:1027700018060906089500240A9412161306140672
:1027800005060895092E0394000C11F4882352F0D5
:10279000BB0F40F4BF2B11F460FF04C06F5F7F4F8D
:1027A0008F4F9F4F089557FD9058440F551F59F074
:1027B0005F3F71F04795880F97FB991F61F09F3F2E
:1027C00079F087950895121613061406551FF2CF57
:1027D0004695F1DF08C0161617061806991FF1CFA7
:1027E00086957105610508940895E894BB276627CE
:1027F0007727CB0197F908950E94871308F48FEF8C
:1028000008950E9414140C94C2130E94B41338F05B
:102810000E94BB1320F0952311F00C94AB130C9481
:10282000B11311240C94F6130E94D31370F3959FE7
:10283000C1F3950F50E0551F629FF001729FBB27B7
:10284000F00DB11D639FAA27F00DB11DAA1F649F53
:102850006627B00DA11D661F829F2227B00DA11D06
:10286000621F739FB00DA11D621F839FA00D611D8C
:10287000221F749F3327A00D611D231F849F600DAD
:10288000211D822F762F6A2F11249F5750409AF0D6
:10289000F1F088234AF0EE0FFF1FBB1F661F771F62
:1028A000881F91505040A9F79E3F510580F00C942D
:1028B000AB130C94F6135F3FE4F3983ED4F3869584
:1028C00077956795B795F795E7959F5FC1F7FE2BCD
:1028D000880F911D9695879597F908950E94871303
:1028E000880B990B0895EE0FFF1F0590F491E02DD2
:0628F0000994F894FFCFEB
:1028F60001FFFFFFFF00E100000000000000C180B3
:1029060081000000000000004B049F056C04610478
:10291600B20470048E04000000001C085E05D9088D
:0E292600D8086E616E00696E66006F766600FE
:00000001FF
